:020000040800F2
:1000000000000120F90E0008C3020008C502000824
:10001000C7020008C9020008CB0200080000000067
:10002000000000000000000000000000CD020008F9
:10003000CF02000800000000D1020008D30200082F
:10004000490F0008490F0008490F0008490F000830
:10005000490F0008490F0008490F0008490F000820
:10006000490F0008490F0008490F0008490F000810
:10007000490F0008490F0008490F0008490F000800
:10008000490F0008490F0008490F0008490F0008F0
:10009000490F0008490F0008490F0008490F0008E0
:1000A000490F0008490F0008490F0008490F0008D0
:1000B000490F0008490F0008490F0008490F0008C0
:1000C000490F0008490F0008490F0008490F0008B0
:1000D000490F0008490F0008490F0008490F0008A0
:1000E000490F0008490F0008490F0008490F000890
:1000F000490F0008490F0008490F0008490F000880
:10010000490F00080000000000000000490F00082F
:10011000490F0008490F0008490F0008490F00085F
:10012000490F0008490F0008490F0008490F00084F
:10013000490F0008490F00080000000000000000FF
:10014000490F0008490F0008490F0008000000008F
:10015000000000000000000000000000000000009F
:10016000490F0008490F0008490F0008490F00080F
:10017000490F0008490F0008490F0008490F0008FF
:10018000490F0008490F00080000000000000000AF
:04019000490F00080B
:1001940010B5054C237833B9044B13B10448AFF3BD
:1001A40000800123237010BD0C000020000000001B
:1001B400A40F000808B5034B1BB103490348AFF370
:1001C400008008BD0000000010000020A40F0008FB
:1001D40010B588B0002403940494059406940794FD
:1001E400124B5A6942F480025A615A6902F480023D
:1001F4000192019A5A6942F400325A615B6903F42C
:1002040000330293029B224620214FF0904000F0DD
:10021400F7FD20230393012304930594069403A973
:100224004FF0904000F0FCFC08B010BD00100240FC
:1002340072B6FEE700B591B02822002106A800F0AE
:1002440082FE0023019302930393049305930223F4
:1002540006930123099310230A9306A800F0B2F829
:1002640068B90F2301930021029103910491059130
:1002740001A800F001FC20B911B05DF804FBFFF700
:10028400D7FFFFF7D5FF08B500F064F8FFF7D2FFFA
:10029400FFF79EFF002220214FF0904000F0B0FDB8
:1002A4004FF4FA7000F07AF8012220214FF09040C8
:1002B40000F0A6FD41F2883000F070F8EAE7FEE7AE
:1002C400FEE7FEE7FEE7FEE770477047704708B5B4
:1002D40000F052F808BD000082B00A4B9A6942F05F
:1002E40001029A619A6902F001020092009ADA69A5
:1002F40042F08052DA61DB6903F080530193019B81
:1003040002B070470010024010B504460E4B1A7834
:100314004FF47A73B3FBF2F30C4A1068B0FBF3F0BA
:1003240000F0CAFD68B90F2C01D901200AE00022AF
:1003340021464FF0FF3000F0AFFD054B1C6000205C
:1003440000E0012010BD00BF0000002008000020D4
:100354000400002008B5074A136843F01003136033
:10036400032000F087FD0F20FFF7CEFFFFF7B4FF57
:10037400002008BD00200240034A1168034B1B788B
:100384000B441360704700BF2800002000000020C9
:10039400014B1868704700BF2800002038B5044698
:1003A400FFF7F6FF0546B4F1FF3F02D0044B1B787C
:1003B4001C44FFF7EDFF401BA042FAD338BD00BF39
:1003C40000000020002800F0088370B582B00446C5
:1003D400036813F0010F3DD0B24B5B6803F00C03CC
:1003E400042B20D0AF4B5B6803F00C03082B13D015
:1003F4006368B3F5803F6AD0002B40F08D8003F131
:10040400804303F504331A6822F480321A601A68B0
:1004140022F480221A605FE0A24B5B6803F4C033CD
:10042400B3F5803FE4D14FF4003393FAA3F39D4B2B
:1004340019684FF4003393FAA3F3B3FA83F303F088
:100444001F03012202FA03F30B4203D06368002B5B
:1004540000F0C582236813F0020F00F0BF80914BB7
:100464005B6813F00C0F00F097808E4B5B6803F011
:100474000C03082B00F08880E368002B00F0EB806D
:10048400012292FAA2F3B3FA83F303F1845303F53E
:1004940084139B001A60FFF77BFF0546022393FA3F
:1004A400A3F3804B1968022393FAA3F3B3FA83F3FB
:1004B40003F01F03012202FA03F30B4240F0BD8054
:1004C400FFF766FF401B0228E8D9032090E2754A33
:1004D400136843F4803313606368002B36D0FFF74E
:1004E40057FF05464FF4003393FAA3F36D4B196895
:1004F4004FF4003393FAA3F3B3FA83F303F01F0327
:10050400012202FA03F30B42A4D1FFF741FF401B7F
:100514006428E7D903206BE2B3F5A02F09D0614B1F
:100524001A6822F480321A601A6822F480221A604F
:10053400D2E703F18043A3F53C331A6842F48022E6
:100544001A601A6842F480321A60C5E7FFF720FF88
:1005540005464FF4003393FAA3F3524B19684FF452
:10056400003393FAA3F3B3FA83F303F01F030122D6
:1005740002FA03F30B423FF46DAFFFF709FF401B90
:100584006428E6D9032033E2464B5B6803F4C033A6
:10059400B3F5004F7FF470AF022393FAA3F3414BFA
:1005A4001968022393FAA3F3B3FA83F303F01F0346
:1005B400012202FA03F30B4203D0E368934240F0B2
:1005C40010823848036823F0F8032169F82292FA6C
:1005D400A2F2B2FA82F291400B430360236813F053
:1005E400080F00F08B806369002B5FD0012191FA22
:1005F400A1F2B2FA82F22C4B13449B001960FFF76C
:10060400C7FE0546022393FAA3F293FAA3F293FAE0
:10061400A3F2244A516A93FAA3F3B3FA83F303F0DF
:100624001F03012202FA03F30B4267D1FFF7B0FE66
:10063400401B0228E6D90320DAE11A48036823F0B4
:10064400F8032169F82292FAA2F2B2FA82F29140F6
:100654000B430360C2E7012393FAA3F3B3FA83F3D2
:1006640003F1845303F584139B0000221A60FFF7FF
:100674008FFE0546022393FAA3F30A4B196802235B
:1006840093FAA3F3B3FA83F303F01F03012202FAEC
:1006940003F30B42A2D0FFF77BFE401B0228E9D9EB
:1006A4000320A5E10010024020819010012292FA5B
:1006B400A2F2B2FA82F29C4B13449B0000221A600D
:1006C400FFF766FE0546022393FAA3F293FAA3F218
:1006D40093FAA3F2954A516A93FAA3F3B3FA83F314
:1006E40003F01F03012202FA03F30B4206D0FFF7C3
:1006F4004FFE401B0228E6D9032079E1236813F05A
:10070400040F00F0A980894BDB6913F0805F20D1CE
:10071400864BDA6942F08052DA61DB6903F0805378
:100724000193019B0125824B1B6813F4807F12D037
:10073400A368012B23D073BB03F1804303F5043377
:100744001A6A22F001021A621A6A22F004021A6278
:100754001AE00025E7E7764A136843F480731360D0
:10076400FFF716FE0646724B1B6813F4807FDFD139
:10077400FFF70EFE801B6428F5D9032038E16B4A8D
:10078400136A43F001031362A368002B3CD0FFF704
:10079400FFFD06462EE0052B09D0644B1A6A22F0B1
:1007A40001021A621A6A22F004021A62ECE75F4B31
:1007B4001A6A42F004021A621A6A42F001021A62C8
:1007C400E2E7022393FAA3F3584B596A022393FAFC
:1007D400A3F3B3FA83F303F01F03012202FA03F332
:1007E400194238D1FFF7D4FD801B41F28833984277
:1007F40000F2F980022393FAA3F293FAA3F3002BF5
:10080400DFD04A4B196AE1E7FFF7C2FD064618E05C
:10081400022393FAA3F3454B596A022393FAA3F3F1
:10082400B3FA83F303F01F03012202FA03F319421C
:1008340011D0FFF7ADFD801B41F28833984200F2DE
:10084400D480022393FAA3F293FAA3F3002BDFD00C
:10085400364B196AE1E7B5BBA369002B00F0C780EA
:10086400324A526802F00C02082A00F0A080022BDF
:100874002FD04FF0807393FAA3F3B3FA83F303F109
:10088400845303F584139B0000221A60FFF780FD54
:1008940004464FF0007393FAA3F3244B19684FF006
:1008A400007393FAA3F3B3FA83F303F01F03012253
:1008B40002FA03F3194278D0FFF76AFD001B0228FD
:1008C400E7D9032094E0194AD36923F08053D36114
:1008D400C2E74FF0807393FAA3F3B3FA83F303F1FF
:1008E400845303F584139B0000221A60FFF750FD24
:1008F40005464FF0007393FAA3F30C4B19684FF0BD
:10090400007393FAA3F3B3FA83F303F01F030122F2
:1009140002FA03F319420DD0FFF73AFD401B0228F7
:10092400E7D9032064E000BF20819010001002404A
:1009340000700040334AD36A23F00F03616A0B430B
:10094400D362536823F47613216AE06901430B43AD
:1009540053604FF0807393FAA3F3B3FA83F303F174
:10096400845303F584139B0001221A60FFF710FDE2
:1009740004464FF0007393FAA3F3224B19684FF027
:10098400007393FAA3F3B3FA83F303F01F03012272
:1009940002FA03F3194206D1FFF7FAFC001B0228FE
:1009A400E7D9032024E0002022E0002020E0012BEE
:1009B40020D0144A5368D06A03F4C031E2699142EA
:1009C4001AD103F47013226A934217D100F00F0076
:1009D400636A984214D100200AE001207047012084
:1009E40006E0012004E0032002E0032000E00020F0
:1009F40002B070BD0120FBE70120F9E70120F7E711
:100A04000120F5E700100240174B5B6803F00C026D
:100A1400082A01D01548704703F470114FF470127E
:100A240092FAA2F2B2FA82F221FA02F21049885C36
:100A34000D4AD26A02F00F020F2191FAA1F1B1FA24
:100A440081F1CA400B498A5C13F4803F05D0074BFF
:100A5400B3FBF2F303FB00F07047044BB3FBF2F378
:100A640003FB00F0704700BF0010024000127A0040
:100A7400CC0F0008BC0F0008002800F0BE8070B541
:100A84000D460446614B1B6803F007038B420BD2EF
:100A94005E4A136823F007030B431360136803F0E3
:100AA40007038B4240F0AB80236813F0020F06D09B
:100AB400574A536823F0F003A1680B43536023683B
:100AC40013F0010F5AD06368012B2DD0022B40D0B4
:100AD400022292FAA2F24E4A1068022292FAA2F27A
:100AE400B2FA82F202F01F02012101FA02F210426C
:100AF40000F0878046494A6822F0030213434B60A2
:100B0400FFF746FC0646424B5B6803F00C03626841
:100B1400B3EB820F32D0FFF73BFC801B41F28833EA
:100B24009842F0D9032067E04FF4003292FAA2F21F
:100B3400374A10684FF4003292FAA2F2B2FA82F203
:100B440002F01F02012101FA02F20242D2D1012075
:100B540052E04FF0007292FAA2F22D4A10684FF060
:100B6400007292FAA2F2B2FA82F202F01F0201219A
:100B740001FA02F21042BDD101203DE0234B1B6873
:100B840003F00703AB420AD9204A136823F0070392
:100B94002B431360136803F00703AB4233D123687C
:100BA40013F0040F06D01A4A536823F4E063E16893
:100BB4000B435360236813F0080F07D0144A53689B
:100BC40023F46053216943EAC1035360FFF71CFF18
:100BD4000F4B5B6803F0F003F02292FAA2F2B2FA30
:100BE40082F2D3400B4AD35CD8400B4B18600B4BBA
:100BF4001868FFF789FB002070BD012070470120B1
:100C0400FAE70120F8E70120F6E700BF00200240E0
:100C140000100240DC0F000808000020040000203F
:100C2400F0B583B0002362E085685E000324B4401D
:100C340025EA0405CC68B4402C438460456825EA61
:100C44000C054C68C4F300149C402C4344605FE0E2
:100C5400DD08083550F8254003F0070C4FEA8C0CEA
:100C64004FF00F0E0EFA0CFE24EA0E0E0C6904FA75
:100C74000CF444EA0E0440F8254060E0062400E049
:100C8400002404FA0EF42C430CF1020C584D45F8E0
:100C94002C40584CA568D44325EA02064F6817F443
:100CA400801F01D042EA0506524DAE60ED6804EAA9
:100CB40005064F6817F4001F01D042EA05064D4DA2
:100CC400EE606D6804EA05064F6817F4003F01D032
:100CD40042EA0506474D6E602D682C404E6816F4B6
:100CE400803F01D042EA0504424A146001330A6895
:100CF40032FA03F47AD04FF0010C0CFA03FC1CEA2C
:100D04000202F3D04C6804F00304013C012C8BD99B
:100D14004C6804F00304032C0CD0C4685D004FF04D
:100D2400030C0CFA05FC24EA0C0C8C68AC4044EA75
:100D34000C04C4604C6804F00304022C88D00468DA
:100D44004FEA430E4FF0030C0CFA0EFC24EA0C0C91
:100D54004C6804F0030404FA0EF444EA0C0404603E
:100D64004C6814F4403FC1D0234CA56945F00105FB
:100D7400A561A46904F001040194019C4FEA930C59
:100D84000CF102051A4C54F8255003F0030E4FEAF7
:100D94008E0E0F2404FA0EF425EA0405B0F1904FE8
:100DA4003FF46EAF154CA04216D004F58064A04207
:100DB40014D004F58064A04212D004F58064A042EB
:100DC40010D004F58064A0420ED004F58064A042E3
:100DD4003FF454AF072454E7012452E7022450E7B8
:100DE40003244EE704244CE705244AE703B0F0BD8E
:100DF40000000140000401400010024000040048CB
:100E04000AB181617047816270470000002808DBE5
:100E14000901C9B200F1604000F5614080F8001397
:100E2400704700F00F000901C9B2014B1954704713
:100E340014ED00E000B500F00700C0F1070CBCF1B0
:100E4400040F28BF4FF0040C031D062B0FD9C31E3B
:100E54004FF0FF3E0EFA0CF021EA000199400EFA21
:100E640003FE22EA0E0241EA02005DF804FB0023BD
:100E7400EEE70000074AD36823F4E0631B041B0C6D
:100E8400000200F4E060034343F0BF6343F4003323
:100E9400D360704700ED00E010B50446054BD868F8
:100EA400C0F30220FFF7C6FF01462046FFF7AEFF5E
:100EB40010BD00BF00ED00E00138B0F1807F0BD21F
:100EC4004FF0E0235861054AF02182F823100020F6
:100ED400986107221A6170470120704700ED00E015
:100EE400034AD2F8883043F47003C2F8883070475C
:100EF40000ED00E0DFF834D0FFF7F2FF0C480D49B5
:100F04000D4A002302E0D458C4500433C4188C4260
:100F1400F9D30A4A0A4C002301E013600432A242C6
:100F2400FBD300F019F8FFF7AEF9FEE7000001204B
:100F3400000000200C000020F40F00080C0000202A
:100F44002C000020FEE702440346934200D1704780
:100F540003F8011BF9E7000070B50D4D0D4C641B3F
:100F6400A4100026A64209D10B4D0C4C00F018F831
:100F7400641BA4100026A64205D170BD55F8043B9D
:100F840098470136EEE755F8043B98470136F2E7F7
:100F9400EC0F0008EC0F0008EC0F0008F00F00083D
:100FA400F8B500BFF8BC08BC9E467047F8B500BF52
:080FB400F8BC08BC9E46704722
:100FBC000102030405060708090A0B0C0D0E0F109D
:100FCC0002030405060708090A0B0C0D0E0F10107E
:100FDC0000000000000000000102030406070809DD
:040FEC00B90100083F
:040FF000950100085F
:0C0FF400010000001000000000127A0054
:0400000508000EF9E8
:00000001FF
